:100000000C943E000C945B000C945B000C945B0021
:100010000C94AB000C945B000C945B000C945B00A4
:100020000C945B000C945B000C945B000C945B00E4
:100030000C945B000C945B000C945B000C945B00D4
:100040000C945B000C945B000C945B000C945B00C4
:100050000C945B000C945B000C945B000C945B00B4
:100060000C945B000C945B006C006F0072007500D8
:1000700078007B007E0081008400870011241FBE71
:10008000CFEFD8E0DEBFCDBF11E0A0E0B1E0E4E00B
:10009000F4E002C005900D92A430B107D9F721E039
:1000A000A4E0B1E001C01D92AC30B207E1F70E94BC
:1000B00081010C9400020C9400008FEF8AB91BB8E8
:1000C0001092C100089590E08A30910518F5FC0166
:1000D000EC5CFF4F0C94FA018FE38BB9089586E036
:1000E0008BB908958BE58BB908958FE48BB908958A
:1000F00086E68BB908958DE68BB908958DE78BB9A7
:10010000089587E08BB908958FE78BB908958FE63E
:100110008BB908951BB80895F89410920A011092B3
:100120000B0187B1887F87B987B1886787B984B1A8
:100130008F6084B988B1876088B90E945D00E8E665
:10014000F0E0808182608083ECE6F0E0808187606F
:100150008083789408951F920F920FB60F92112406
:100160008F939F93EF93FF9386B19091010191300C
:10017000C1F481FD16C0EFE1FEE43197F1F700C054
:10018000000031990EC090930B011092040110925F
:1001900005011092060110920701109208011092B9
:1001A000090190910001913099F482FD11C0909164
:1001B0000A01913069F4EFE1FEE43197F1F700C0F4
:1001C0000000329905C0909108019F5F909308014B
:1001D00090910201913099F480FD11C090910A0133
:1001E000913069F4EFE1FEE43197F1F700C00000CF
:1001F000309905C0909109019F5F90930901982F54
:1002000091709093020181FB992790F990930101DD
:1002100082FB882780F980930001FF91EF919F91E5
:100220008F910F900FBE0F901F9018958FE19EE455
:100230000197F1F700C000008091060185B988B1EF
:10024000806188B988B1877F88B98FE19EE4019782
:10025000F1F700C000008091070185B988B188607E
:1002600088B988B18F7E88B90895823091F028F4DA
:10027000882341F0813049F01BC0833071F0843015
:1002800081F016C010920701089581E08093070164
:10029000089582E080930701089584E08093070128
:1002A00008958FE08093070181E080930501089510
:1002B000109207010895823091F028F4882341F0CC
:1002C000813049F01BC0833071F0843081F016C05A
:1002D00010920601089581E080930601089582E05E
:1002E00080930601089584E08093060108958FE0CD
:1002F0008093060181E08093040108951092060125
:1003000008950E948C0080E00E94630080910B01A0
:10031000813009F048C010920B0185E00E94630013
:100320002FEF83ED90E3215080409040E1F700C033
:10033000000084E00E9463002FEF83ED90E32150E2
:1003400080409040E1F700C0000083E00E9463001D
:100350002FEF83ED90E3215080409040E1F700C003
:10036000000082E00E9463002FEF83ED90E32150B4
:1003700080409040E1F700C0000081E00E946300EF
:100380002FEF83ED90E3215080409040E1F700C0D3
:10039000000080E00E9463001092090110920801A1
:1003A00081E080930A0180910501813039F4109237
:1003B0000A01109208010E9463000BC080910401A1
:1003C000813039F410920A011092090182E00E94F2
:1003D0006300809108010E945B01809109010E94E5
:1003E00035010E9416018FE19EE40197F1F700C0EC
:1003F00000008CCFEE0FFF1F0590F491E02D0994C3
:04040000F894FFCF9E
:0404040001010100F1
:00000001FF
